{
  "_format": "hh-sol-artifact-1",
  "contractName": "CrowdFunding",
  "sourceName": "contracts/Crowdfunding.sol",
  "abi": [
    {
      "inputs": [],
      "stateMutability": "nonpayable",
      "type": "constructor"
    },
    {
      "inputs": [],
      "name": "EnforcedPause",
      "type": "error"
    },
    {
      "inputs": [],
      "name": "ExpectedPause",
      "type": "error"
    },
    {
      "inputs": [],
      "name": "ReentrancyGuardReentrantCall",
      "type": "error"
    },
    {
      "anonymous": false,
      "inputs": [
        {
          "indexed": true,
          "internalType": "uint256",
          "name": "id",
          "type": "uint256"
        },
        {
          "indexed": true,
          "internalType": "address",
          "name": "owner",
          "type": "address"
        },
        {
          "indexed": false,
          "internalType": "string",
          "name": "title",
          "type": "string"
        },
        {
          "indexed": false,
          "internalType": "uint256",
          "name": "target",
          "type": "uint256"
        },
        {
          "indexed": false,
          "internalType": "uint256",
          "name": "deadline",
          "type": "uint256"
        }
      ],
      "name": "CampaignCreated",
      "type": "event"
    },
    {
      "anonymous": false,
      "inputs": [
        {
          "indexed": true,
          "internalType": "uint256",
          "name": "id",
          "type": "uint256"
        }
      ],
      "name": "CampaignFailed",
      "type": "event"
    },
    {
      "anonymous": false,
      "inputs": [
        {
          "indexed": true,
          "internalType": "uint256",
          "name": "id",
          "type": "uint256"
        },
        {
          "indexed": false,
          "internalType": "enum CrowdFunding.CampaignState",
          "name": "state",
          "type": "uint8"
        }
      ],
      "name": "CampaignFinalized",
      "type": "event"
    },
    {
      "anonymous": false,
      "inputs": [
        {
          "indexed": true,
          "internalType": "uint256",
          "name": "id",
          "type": "uint256"
        },
        {
          "indexed": false,
          "internalType": "uint256",
          "name": "amountCollected",
          "type": "uint256"
        }
      ],
      "name": "CampaignSuccessful",
      "type": "event"
    },
    {
      "anonymous": false,
      "inputs": [
        {
          "indexed": true,
          "internalType": "uint256",
          "name": "id",
          "type": "uint256"
        },
        {
          "indexed": true,
          "internalType": "address",
          "name": "donor",
          "type": "address"
        },
        {
          "indexed": false,
          "internalType": "uint256",
          "name": "amount",
          "type": "uint256"
        }
      ],
      "name": "DonationReceived",
      "type": "event"
    },
    {
      "anonymous": false,
      "inputs": [
        {
          "indexed": true,
          "internalType": "uint256",
          "name": "id",
          "type": "uint256"
        },
        {
          "indexed": true,
          "internalType": "address",
          "name": "owner",
          "type": "address"
        },
        {
          "indexed": false,
          "internalType": "uint256",
          "name": "amount",
          "type": "uint256"
        },
        {
          "indexed": false,
          "internalType": "uint256",
          "name": "fee",
          "type": "uint256"
        }
      ],
      "name": "FundsWithdrawn",
      "type": "event"
    },
    {
      "anonymous": false,
      "inputs": [
        {
          "indexed": false,
          "internalType": "address",
          "name": "account",
          "type": "address"
        }
      ],
      "name": "Paused",
      "type": "event"
    },
    {
      "anonymous": false,
      "inputs": [
        {
          "indexed": true,
          "internalType": "uint256",
          "name": "id",
          "type": "uint256"
        },
        {
          "indexed": true,
          "internalType": "address",
          "name": "donor",
          "type": "address"
        },
        {
          "indexed": false,
          "internalType": "uint256",
          "name": "amount",
          "type": "uint256"
        }
      ],
      "name": "RefundIssued",
      "type": "event"
    },
    {
      "anonymous": false,
      "inputs": [
        {
          "indexed": false,
          "internalType": "address",
          "name": "account",
          "type": "address"
        }
      ],
      "name": "Unpaused",
      "type": "event"
    },
    {
      "inputs": [],
      "name": "admin",
      "outputs": [
        {
          "internalType": "address",
          "name": "",
          "type": "address"
        }
      ],
      "stateMutability": "view",
      "type": "function"
    },
    {
      "inputs": [
        {
          "internalType": "uint256",
          "name": "_id",
          "type": "uint256"
        },
        {
          "internalType": "address[]",
          "name": "_contributors",
          "type": "address[]"
        }
      ],
      "name": "batchRefund",
      "outputs": [],
      "stateMutability": "nonpayable",
      "type": "function"
    },
    {
      "inputs": [
        {
          "internalType": "uint256",
          "name": "",
          "type": "uint256"
        }
      ],
      "name": "campaigns",
      "outputs": [
        {
          "internalType": "address",
          "name": "owner",
          "type": "address"
        },
        {
          "internalType": "string",
          "name": "title",
          "type": "string"
        },
        {
          "internalType": "string",
          "name": "description",
          "type": "string"
        },
        {
          "internalType": "uint256",
          "name": "target",
          "type": "uint256"
        },
        {
          "internalType": "uint256",
          "name": "deadline",
          "type": "uint256"
        },
        {
          "internalType": "uint256",
          "name": "amountCollected",
          "type": "uint256"
        },
        {
          "internalType": "string",
          "name": "image",
          "type": "string"
        },
        {
          "internalType": "enum CrowdFunding.CampaignState",
          "name": "state",
          "type": "uint8"
        }
      ],
      "stateMutability": "view",
      "type": "function"
    },
    {
      "inputs": [
        {
          "internalType": "uint256",
          "name": "_id",
          "type": "uint256"
        }
      ],
      "name": "claimRefund",
      "outputs": [],
      "stateMutability": "nonpayable",
      "type": "function"
    },
    {
      "inputs": [
        {
          "internalType": "uint256",
          "name": "",
          "type": "uint256"
        },
        {
          "internalType": "address",
          "name": "",
          "type": "address"
        }
      ],
      "name": "contributions",
      "outputs": [
        {
          "internalType": "uint256",
          "name": "",
          "type": "uint256"
        }
      ],
      "stateMutability": "view",
      "type": "function"
    },
    {
      "inputs": [
        {
          "internalType": "address",
          "name": "_owner",
          "type": "address"
        },
        {
          "internalType": "string",
          "name": "_title",
          "type": "string"
        },
        {
          "internalType": "string",
          "name": "_description",
          "type": "string"
        },
        {
          "internalType": "uint256",
          "name": "_target",
          "type": "uint256"
        },
        {
          "internalType": "uint256",
          "name": "_deadline",
          "type": "uint256"
        },
        {
          "internalType": "string",
          "name": "_image",
          "type": "string"
        }
      ],
      "name": "createCampaign",
      "outputs": [
        {
          "internalType": "uint256",
          "name": "",
          "type": "uint256"
        }
      ],
      "stateMutability": "nonpayable",
      "type": "function"
    },
    {
      "inputs": [
        {
          "internalType": "uint256",
          "name": "_id",
          "type": "uint256"
        }
      ],
      "name": "donateToCampaign",
      "outputs": [],
      "stateMutability": "payable",
      "type": "function"
    },
    {
      "inputs": [
        {
          "internalType": "uint256",
          "name": "_id",
          "type": "uint256"
        }
      ],
      "name": "finalizeCampaign",
      "outputs": [],
      "stateMutability": "nonpayable",
      "type": "function"
    },
    {
      "inputs": [
        {
          "internalType": "uint256",
          "name": "_id",
          "type": "uint256"
        }
      ],
      "name": "getCampaign",
      "outputs": [
        {
          "components": [
            {
              "internalType": "address",
              "name": "owner",
              "type": "address"
            },
            {
              "internalType": "string",
              "name": "title",
              "type": "string"
            },
            {
              "internalType": "string",
              "name": "description",
              "type": "string"
            },
            {
              "internalType": "uint256",
              "name": "target",
              "type": "uint256"
            },
            {
              "internalType": "uint256",
              "name": "deadline",
              "type": "uint256"
            },
            {
              "internalType": "uint256",
              "name": "amountCollected",
              "type": "uint256"
            },
            {
              "internalType": "string",
              "name": "image",
              "type": "string"
            },
            {
              "internalType": "address[]",
              "name": "donators",
              "type": "address[]"
            },
            {
              "internalType": "uint256[]",
              "name": "donations",
              "type": "uint256[]"
            },
            {
              "internalType": "enum CrowdFunding.CampaignState",
              "name": "state",
              "type": "uint8"
            }
          ],
          "internalType": "struct CrowdFunding.Campaign",
          "name": "",
          "type": "tuple"
        }
      ],
      "stateMutability": "view",
      "type": "function"
    },
    {
      "inputs": [
        {
          "internalType": "uint256",
          "name": "_offset",
          "type": "uint256"
        },
        {
          "internalType": "uint256",
          "name": "_limit",
          "type": "uint256"
        }
      ],
      "name": "getCampaigns",
      "outputs": [
        {
          "components": [
            {
              "internalType": "address",
              "name": "owner",
              "type": "address"
            },
            {
              "internalType": "string",
              "name": "title",
              "type": "string"
            },
            {
              "internalType": "string",
              "name": "description",
              "type": "string"
            },
            {
              "internalType": "uint256",
              "name": "target",
              "type": "uint256"
            },
            {
              "internalType": "uint256",
              "name": "deadline",
              "type": "uint256"
            },
            {
              "internalType": "uint256",
              "name": "amountCollected",
              "type": "uint256"
            },
            {
              "internalType": "string",
              "name": "image",
              "type": "string"
            },
            {
              "internalType": "enum CrowdFunding.CampaignState",
              "name": "state",
              "type": "uint8"
            },
            {
              "internalType": "uint256",
              "name": "donatorsCount",
              "type": "uint256"
            }
          ],
          "internalType": "struct CrowdFunding.CampaignInfo[]",
          "name": "",
          "type": "tuple[]"
        }
      ],
      "stateMutability": "view",
      "type": "function"
    },
    {
      "inputs": [],
      "name": "getContractBalance",
      "outputs": [
        {
          "internalType": "uint256",
          "name": "",
          "type": "uint256"
        }
      ],
      "stateMutability": "view",
      "type": "function"
    },
    {
      "inputs": [
        {
          "internalType": "uint256",
          "name": "_id",
          "type": "uint256"
        },
        {
          "internalType": "address",
          "name": "_donor",
          "type": "address"
        }
      ],
      "name": "getContribution",
      "outputs": [
        {
          "internalType": "uint256",
          "name": "",
          "type": "uint256"
        }
      ],
      "stateMutability": "view",
      "type": "function"
    },
    {
      "inputs": [
        {
          "internalType": "uint256",
          "name": "_id",
          "type": "uint256"
        }
      ],
      "name": "getDonators",
      "outputs": [
        {
          "internalType": "address[]",
          "name": "",
          "type": "address[]"
        },
        {
          "internalType": "uint256[]",
          "name": "",
          "type": "uint256[]"
        }
      ],
      "stateMutability": "view",
      "type": "function"
    },
    {
      "inputs": [
        {
          "internalType": "uint256",
          "name": "_id",
          "type": "uint256"
        }
      ],
      "name": "isCampaignFinalized",
      "outputs": [
        {
          "internalType": "bool",
          "name": "",
          "type": "bool"
        }
      ],
      "stateMutability": "view",
      "type": "function"
    },
    {
      "inputs": [],
      "name": "numberOfCampaigns",
      "outputs": [
        {
          "internalType": "uint256",
          "name": "",
          "type": "uint256"
        }
      ],
      "stateMutability": "view",
      "type": "function"
    },
    {
      "inputs": [],
      "name": "pause",
      "outputs": [],
      "stateMutability": "nonpayable",
      "type": "function"
    },
    {
      "inputs": [],
      "name": "paused",
      "outputs": [
        {
          "internalType": "bool",
          "name": "",
          "type": "bool"
        }
      ],
      "stateMutability": "view",
      "type": "function"
    },
    {
      "inputs": [],
      "name": "platformFeeRate",
      "outputs": [
        {
          "internalType": "uint256",
          "name": "",
          "type": "uint256"
        }
      ],
      "stateMutability": "view",
      "type": "function"
    },
    {
      "inputs": [],
      "name": "platformFeeRecipient",
      "outputs": [
        {
          "internalType": "address",
          "name": "",
          "type": "address"
        }
      ],
      "stateMutability": "view",
      "type": "function"
    },
    {
      "inputs": [
        {
          "internalType": "uint256",
          "name": "_feeRate",
          "type": "uint256"
        }
      ],
      "name": "setPlatformFee",
      "outputs": [],
      "stateMutability": "nonpayable",
      "type": "function"
    },
    {
      "inputs": [
        {
          "internalType": "address",
          "name": "_recipient",
          "type": "address"
        }
      ],
      "name": "setPlatformFeeRecipient",
      "outputs": [],
      "stateMutability": "nonpayable",
      "type": "function"
    },
    {
      "inputs": [
        {
          "internalType": "address",
          "name": "_newAdmin",
          "type": "address"
        }
      ],
      "name": "transferAdmin",
      "outputs": [],
      "stateMutability": "nonpayable",
      "type": "function"
    },
    {
      "inputs": [],
      "name": "unpause",
      "outputs": [],
      "stateMutability": "nonpayable",
      "type": "function"
    },
    {
      "inputs": [
        {
          "internalType": "uint256",
          "name": "_id",
          "type": "uint256"
        }
      ],
      "name": "withdrawFunds",
      "outputs": [],
      "stateMutability": "nonpayable",
      "type": "function"
    }
  ],
  "bytecode": "0x6080604052600060065534801561001557600080fd5b50600160008190555033600860006101000a81548173ffffffffffffffffffffffffffffffffffffffff021916908373ffffffffffffffffffffffffffffffffffffffff16021790555033600760006101000a81548173ffffffffffffffffffffffffffffffffffffffff021916908373ffffffffffffffffffffffffffffffffffffffff1602179055506148a3806100af6000396000f3fe60806040526004361061014b5760003560e01c80635b7baf64116100b65780639943e3a11161006f5780639943e3a114610473578063c4fa0af5146104b0578063e081dbf9146104ed578063eb13554f1461052a578063eeca08f014610555578063f851a440146105805761014b565b80635b7baf641461038b5780635c975abb146103b45780636b5ca27d146103df5780636f9fb98a1461040857806375829def146104335780638456cb591461045c5761014b565b8063155dd5ee11610108578063155dd5ee1461028c5780631871e243146102b55780633d891f59146102de5780633f4ba83a1461031b57806342a4fda8146103325780635598f8cc1461034e5761014b565b806307ca140d146101505780630825c61e1461017b57806309051566146101a45780630fa91fa9146101e157806312e8e2c31461021f578063141961bc14610248575b600080fd5b34801561015c57600080fd5b506101656105ab565b6040516101729190612da7565b60405180910390f35b34801561018757600080fd5b506101a2600480360381019061019d9190612e5d565b6105b1565b005b3480156101b057600080fd5b506101cb60048036038101906101c69190612ebd565b61090f565b6040516101d891906131e9565b60405180910390f35b3480156101ed57600080fd5b506102086004803603810190610203919061320b565b610cbf565b604051610216929190613396565b60405180910390f35b34801561022b57600080fd5b506102466004803603810190610241919061320b565b610e17565b005b34801561025457600080fd5b5061026f600480360381019061026a919061320b565b610ef6565b604051610283989796959493929190613435565b60405180910390f35b34801561029857600080fd5b506102b360048036038101906102ae919061320b565b611103565b005b3480156102c157600080fd5b506102dc60048036038101906102d791906134f4565b6115c4565b005b3480156102ea57600080fd5b5061030560048036038101906103009190613521565b611707565b6040516103129190612da7565b60405180910390f35b34801561032757600080fd5b5061033061172c565b005b61034c6004803603810190610347919061320b565b6117c6565b005b34801561035a57600080fd5b506103756004803603810190610370919061320b565b611b46565b6040516103829190613735565b60405180910390f35b34801561039757600080fd5b506103b260048036038101906103ad919061320b565b611f05565b005b3480156103c057600080fd5b506103c96121fc565b6040516103d69190613772565b60405180910390f35b3480156103eb57600080fd5b506104066004803603810190610401919061320b565b612213565b005b34801561041457600080fd5b5061041d6124f9565b60405161042a9190612da7565b60405180910390f35b34801561043f57600080fd5b5061045a600480360381019061045591906134f4565b612501565b005b34801561046857600080fd5b50610471612644565b005b34801561047f57600080fd5b5061049a600480360381019061049591906137e3565b6126de565b6040516104a79190612da7565b60405180910390f35b3480156104bc57600080fd5b506104d760048036038101906104d2919061320b565b612a2a565b6040516104e49190613772565b60405180910390f35b3480156104f957600080fd5b50610514600480360381019061050f9190613521565b612a54565b6040516105219190612da7565b60405180910390f35b34801561053657600080fd5b5061053f612aaf565b60405161054c91906138d2565b60405180910390f35b34801561056157600080fd5b5061056a612ad5565b6040516105779190612da7565b60405180910390f35b34801561058c57600080fd5b50610595612adb565b6040516105a291906138d2565b60405180910390f35b60055481565b6105b9612b01565b600860009054906101000a900473ffffffffffffffffffffffffffffffffffffffff1673ffffffffffffffffffffffffffffffffffffffff163373ffffffffffffffffffffffffffffffffffffffff1614610649576040517f08c379a000000000000000000000000000000000000000000000000000000000815260040161064090613939565b60405180910390fd5b82600554811061068e576040517f08c379a0000000000000000000000000000000000000000000000000000000008152600401610685906139a5565b60405180910390fd5b6000600260008681526020019081526020016000209050600260038111156106b9576106b8613009565b5b8160090160009054906101000a900460ff1660038111156106dd576106dc613009565b5b1461071d576040517f08c379a000000000000000000000000000000000000000000000000000000000815260040161071490613a11565b60405180910390fd5b60005b848490508110156108ff5760008585838181106107405761073f613a31565b5b905060200201602081019061075591906134f4565b905060006003600089815260200190815260200160002060008373ffffffffffffffffffffffffffffffffffffffff1673ffffffffffffffffffffffffffffffffffffffff16815260200190815260200160002054905060008111156108ea576000600360008a815260200190815260200160002060008473ffffffffffffffffffffffffffffffffffffffff1673ffffffffffffffffffffffffffffffffffffffff168152602001908152602001600020819055508084600501600082825461081f9190613a8f565b9250508190555060008273ffffffffffffffffffffffffffffffffffffffff168260405161084c90613af4565b60006040518083038185875af1925050503d8060008114610889576040519150601f19603f3d011682016040523d82523d6000602084013e61088e565b606091505b5050905080156108e8578273ffffffffffffffffffffffffffffffffffffffff16897f7a482fdeb6bc9a1376f597068a214a7a39472bb2eff1b8cad21ba04f49ddca1b846040516108df9190612da7565b60405180910390a35b505b505080806108f790613b09565b915050610720565b50505061090a612b47565b505050565b6060600554831061097657600067ffffffffffffffff81111561093557610934613b51565b5b60405190808252806020026020018201604052801561096e57816020015b61095b612c9f565b8152602001906001900390816109535790505b509050610cb9565b600082846109849190613b80565b90506005548111156109965760055490505b600084826109a49190613a8f565b905060008167ffffffffffffffff8111156109c2576109c1613b51565b5b6040519080825280602002602001820160405280156109fb57816020015b6109e8612c9f565b8152602001906001900390816109e05790505b50905060005b82811015610cb157600060026000838a610a1b9190613b80565b815260200190815260200160002090506040518061012001604052808260000160009054906101000a900473ffffffffffffffffffffffffffffffffffffffff1673ffffffffffffffffffffffffffffffffffffffff168152602001826001018054610a8690613be3565b80601f0160208091040260200160405190810160405280929190818152602001828054610ab290613be3565b8015610aff5780601f10610ad457610100808354040283529160200191610aff565b820191906000526020600020905b815481529060010190602001808311610ae257829003601f168201915b50505050508152602001826002018054610b1890613be3565b80601f0160208091040260200160405190810160405280929190818152602001828054610b4490613be3565b8015610b915780601f10610b6657610100808354040283529160200191610b91565b820191906000526020600020905b815481529060010190602001808311610b7457829003601f168201915b50505050508152602001826003015481526020018260040154815260200182600501548152602001826006018054610bc890613be3565b80601f0160208091040260200160405190810160405280929190818152602001828054610bf490613be3565b8015610c415780601f10610c1657610100808354040283529160200191610c41565b820191906000526020600020905b815481529060010190602001808311610c2457829003601f168201915b505050505081526020018260090160009054906101000a900460ff166003811115610c6f57610c6e613009565b5b81526020018260070180549050815250838381518110610c9257610c91613a31565b5b6020026020010181905250508080610ca990613b09565b915050610a01565b508093505050505b92915050565b606080826005548110610d07576040517f08c379a0000000000000000000000000000000000000000000000000000000008152600401610cfe906139a5565b60405180910390fd5b600260008581526020019081526020016000206007016002600086815260200190815260200160002060080181805480602002602001604051908101604052809291908181526020018280548015610db457602002820191906000526020600020905b8160009054906101000a900473ffffffffffffffffffffffffffffffffffffffff1673ffffffffffffffffffffffffffffffffffffffff1681526020019060010190808311610d6a575b5050505050915080805480602002602001604051908101604052809291908181526020018280548015610e0657602002820191906000526020600020905b815481526020019060010190808311610df2575b505050505090509250925050915091565b600860009054906101000a900473ffffffffffffffffffffffffffffffffffffffff1673ffffffffffffffffffffffffffffffffffffffff163373ffffffffffffffffffffffffffffffffffffffff1614610ea7576040517f08c379a0000000000000000000000000000000000000000000000000000000008152600401610e9e90613939565b60405180910390fd5b6103e8811115610eec576040517f08c379a0000000000000000000000000000000000000000000000000000000008152600401610ee390613c60565b60405180910390fd5b8060068190555050565b60026020528060005260406000206000915090508060000160009054906101000a900473ffffffffffffffffffffffffffffffffffffffff1690806001018054610f3f90613be3565b80601f0160208091040260200160405190810160405280929190818152602001828054610f6b90613be3565b8015610fb85780601f10610f8d57610100808354040283529160200191610fb8565b820191906000526020600020905b815481529060010190602001808311610f9b57829003601f168201915b505050505090806002018054610fcd90613be3565b80601f0160208091040260200160405190810160405280929190818152602001828054610ff990613be3565b80156110465780601f1061101b57610100808354040283529160200191611046565b820191906000526020600020905b81548152906001019060200180831161102957829003601f168201915b50505050509080600301549080600401549080600501549080600601805461106d90613be3565b80601f016020809104026020016040519081016040528092919081815260200182805461109990613be3565b80156110e65780601f106110bb576101008083540402835291602001916110e6565b820191906000526020600020905b8154815290600101906020018083116110c957829003601f168201915b5050505050908060090160009054906101000a900460ff16905088565b61110b612b01565b611113612b51565b806005548110611158576040517f08c379a000000000000000000000000000000000000000000000000000000000815260040161114f906139a5565b60405180910390fd5b60006002600084815260200190815260200160002090508060000160009054906101000a900473ffffffffffffffffffffffffffffffffffffffff1673ffffffffffffffffffffffffffffffffffffffff163373ffffffffffffffffffffffffffffffffffffffff1614611201576040517f08c379a00000000000000000000000000000000000000000000000000000000081526004016111f890613ccc565b60405180910390fd5b6001600381111561121557611214613009565b5b8160090160009054906101000a900460ff16600381111561123957611238613009565b5b14611279576040517f08c379a000000000000000000000000000000000000000000000000000000000815260040161127090613d38565b60405180910390fd5b60008160050154116112c0576040517f08c379a00000000000000000000000000000000000000000000000000000000081526004016112b790613da4565b60405180910390fd5b60008160050154905060008060065411801561132b5750600073ffffffffffffffffffffffffffffffffffffffff16600760009054906101000a900473ffffffffffffffffffffffffffffffffffffffff1673ffffffffffffffffffffffffffffffffffffffff1614155b1561134e57612710600654836113419190613dc4565b61134b9190613e35565b90505b6000818361135c9190613a8f565b90506000846005018190555060038460090160006101000a81548160ff021916908360038111156113905761138f613009565b5b0217905550600082111561146e576000600760009054906101000a900473ffffffffffffffffffffffffffffffffffffffff1673ffffffffffffffffffffffffffffffffffffffff16836040516113e690613af4565b60006040518083038185875af1925050503d8060008114611423576040519150601f19603f3d011682016040523d82523d6000602084013e611428565b606091505b505090508061146c576040517f08c379a000000000000000000000000000000000000000000000000000000000815260040161146390613eb2565b60405180910390fd5b505b60008460000160009054906101000a900473ffffffffffffffffffffffffffffffffffffffff1673ffffffffffffffffffffffffffffffffffffffff16826040516114b890613af4565b60006040518083038185875af1925050503d80600081146114f5576040519150601f19603f3d011682016040523d82523d6000602084013e6114fa565b606091505b505090508061153e576040517f08c379a000000000000000000000000000000000000000000000000000000000815260040161153590613f1e565b60405180910390fd5b8460000160009054906101000a900473ffffffffffffffffffffffffffffffffffffffff1673ffffffffffffffffffffffffffffffffffffffff16877f3dbb1a26f29aef1264c12ca1285deb60cca5666d8b17100c7ea1602c0a4014f684866040516115ab929190613f3e565b60405180910390a35050505050506115c1612b47565b50565b600860009054906101000a900473ffffffffffffffffffffffffffffffffffffffff1673ffffffffffffffffffffffffffffffffffffffff163373ffffffffffffffffffffffffffffffffffffffff1614611654576040517f08c379a000000000000000000000000000000000000000000000000000000000815260040161164b90613939565b60405180910390fd5b600073ffffffffffffffffffffffffffffffffffffffff168173ffffffffffffffffffffffffffffffffffffffff16036116c3576040517f08c379a00000000000000000000000000000000000000000000000000000000081526004016116ba90613fb3565b60405180910390fd5b80600760006101000a81548173ffffffffffffffffffffffffffffffffffffffff021916908373ffffffffffffffffffffffffffffffffffffffff16021790555050565b6003602052816000526040600020602052806000526040600020600091509150505481565b600860009054906101000a900473ffffffffffffffffffffffffffffffffffffffff1673ffffffffffffffffffffffffffffffffffffffff163373ffffffffffffffffffffffffffffffffffffffff16146117bc576040517f08c379a00000000000000000000000000000000000000000000000000000000081526004016117b390613939565b60405180910390fd5b6117c4612b92565b565b6117ce612b01565b6117d6612b51565b80600554811061181b576040517f08c379a0000000000000000000000000000000000000000000000000000000008152600401611812906139a5565b60405180910390fd5b6000341161185e576040517f08c379a00000000000000000000000000000000000000000000000000000000081526004016118559061401f565b60405180910390fd5b60006002600084815260200190815260200160002090506000600381111561188957611888613009565b5b8160090160009054906101000a900460ff1660038111156118ad576118ac613009565b5b146118ed576040517f08c379a00000000000000000000000000000000000000000000000000000000081526004016118e49061408b565b60405180910390fd5b80600401544210611933576040517f08c379a000000000000000000000000000000000000000000000000000000000815260040161192a906140f7565b60405180910390fd5b80600701339080600181540180825580915050600190039060005260206000200160009091909190916101000a81548173ffffffffffffffffffffffffffffffffffffffff021916908373ffffffffffffffffffffffffffffffffffffffff16021790555080600801349080600181540180825580915050600190039060005260206000200160009091909190915055348160050160008282546119d79190613b80565b92505081905550346003600085815260200190815260200160002060003373ffffffffffffffffffffffffffffffffffffffff1673ffffffffffffffffffffffffffffffffffffffff1681526020019081526020016000206000828254611a3e9190613b80565b925050819055503373ffffffffffffffffffffffffffffffffffffffff16837f0b5b4c52969ff7329ecf7ee536409fda87812b15a8622bc6e8cdeab3aee14a2634604051611a8c9190612da7565b60405180910390a38060030154816005015410611b395760018160090160006101000a81548160ff02191690836003811115611acb57611aca613009565b5b021790555060016004600085815260200190815260200160002060006101000a81548160ff021916908315150217905550827f3941dfa0951ac1ba704c7b03c074bd1af9994d26e38886f4b9d81a3b72827a4e8260050154604051611b309190612da7565b60405180910390a25b5050611b43612b47565b50565b611b4e612d13565b816005548110611b93576040517f08c379a0000000000000000000000000000000000000000000000000000000008152600401611b8a906139a5565b60405180910390fd5b60026000848152602001908152602001600020604051806101400160405290816000820160009054906101000a900473ffffffffffffffffffffffffffffffffffffffff1673ffffffffffffffffffffffffffffffffffffffff1673ffffffffffffffffffffffffffffffffffffffff168152602001600182018054611c1890613be3565b80601f0160208091040260200160405190810160405280929190818152602001828054611c4490613be3565b8015611c915780601f10611c6657610100808354040283529160200191611c91565b820191906000526020600020905b815481529060010190602001808311611c7457829003601f168201915b50505050508152602001600282018054611caa90613be3565b80601f0160208091040260200160405190810160405280929190818152602001828054611cd690613be3565b8015611d235780601f10611cf857610100808354040283529160200191611d23565b820191906000526020600020905b815481529060010190602001808311611d0657829003601f168201915b50505050508152602001600382015481526020016004820154815260200160058201548152602001600682018054611d5a90613be3565b80601f0160208091040260200160405190810160405280929190818152602001828054611d8690613be3565b8015611dd35780601f10611da857610100808354040283529160200191611dd3565b820191906000526020600020905b815481529060010190602001808311611db657829003601f168201915b5050505050815260200160078201805480602002602001604051908101604052809291908181526020018280548015611e6157602002820191906000526020600020905b8160009054906101000a900473ffffffffffffffffffffffffffffffffffffffff1673ffffffffffffffffffffffffffffffffffffffff1681526020019060010190808311611e17575b5050505050815260200160088201805480602002602001604051908101604052809291908181526020018280548015611eb957602002820191906000526020600020905b815481526020019060010190808311611ea5575b505050505081526020016009820160009054906101000a900460ff166003811115611ee757611ee6613009565b5b6003811115611ef957611ef8613009565b5b81525050915050919050565b611f0d612b01565b611f15612b51565b806005548110611f5a576040517f08c379a0000000000000000000000000000000000000000000000000000000008152600401611f51906139a5565b60405180910390fd5b600060026000848152602001908152602001600020905060026003811115611f8557611f84613009565b5b8160090160009054906101000a900460ff166003811115611fa957611fa8613009565b5b14611fe9576040517f08c379a0000000000000000000000000000000000000000000000000000000008152600401611fe090613a11565b60405180910390fd5b60006003600085815260200190815260200160002060003373ffffffffffffffffffffffffffffffffffffffff1673ffffffffffffffffffffffffffffffffffffffff16815260200190815260200160002054905060008111612081576040517f08c379a000000000000000000000000000000000000000000000000000000000815260040161207890614163565b60405180910390fd5b60006003600086815260200190815260200160002060003373ffffffffffffffffffffffffffffffffffffffff1673ffffffffffffffffffffffffffffffffffffffff16815260200190815260200160002081905550808260050160008282546120eb9190613a8f565b9250508190555060003373ffffffffffffffffffffffffffffffffffffffff168260405161211890613af4565b60006040518083038185875af1925050503d8060008114612155576040519150601f19603f3d011682016040523d82523d6000602084013e61215a565b606091505b505090508061219e576040517f08c379a0000000000000000000000000000000000000000000000000000000008152600401612195906141cf565b60405180910390fd5b3373ffffffffffffffffffffffffffffffffffffffff16857f7a482fdeb6bc9a1376f597068a214a7a39472bb2eff1b8cad21ba04f49ddca1b846040516121e59190612da7565b60405180910390a3505050506121f9612b47565b50565b6000600160009054906101000a900460ff16905090565b61221b612b01565b612223612b51565b806005548110612268576040517f08c379a000000000000000000000000000000000000000000000000000000000815260040161225f906139a5565b60405180910390fd5b60006002600084815260200190815260200160002090506000600381111561229357612292613009565b5b8160090160009054906101000a900460ff1660038111156122b7576122b6613009565b5b146122f7576040517f08c379a00000000000000000000000000000000000000000000000000000000081526004016122ee9061423b565b60405180910390fd5b806004015442101561233e576040517f08c379a0000000000000000000000000000000000000000000000000000000008152600401612335906142a7565b60405180910390fd5b6004600084815260200190815260200160002060009054906101000a900460ff161561239f576040517f08c379a00000000000000000000000000000000000000000000000000000000081526004016123969061423b565b60405180910390fd5b60016004600085815260200190815260200160002060006101000a81548160ff02191690831515021790555080600301548160050154106124485760018160090160006101000a81548160ff0219169083600381111561240257612401613009565b5b0217905550827f3941dfa0951ac1ba704c7b03c074bd1af9994d26e38886f4b9d81a3b72827a4e826005015460405161243b9190612da7565b60405180910390a26124a3565b60028160090160006101000a81548160ff021916908360038111156124705761246f613009565b5b0217905550827f7b1418b19a03b176f641639ee79855da661fa88a08377ecd32ad6d38152b953660405160405180910390a25b827ffbdbee1007296104d763605c2eb31f467b3e4cc929953ced44b039a074178b098260090160009054906101000a900460ff166040516124e491906142c7565b60405180910390a250506124f6612b47565b50565b600047905090565b600860009054906101000a900473ffffffffffffffffffffffffffffffffffffffff1673ffffffffffffffffffffffffffffffffffffffff163373ffffffffffffffffffffffffffffffffffffffff1614612591576040517f08c379a000000000000000000000000000000000000000000000000000000000815260040161258890613939565b60405180910390fd5b600073ffffffffffffffffffffffffffffffffffffffff168173ffffffffffffffffffffffffffffffffffffffff1603612600576040517f08c379a00000000000000000000000000000000000000000000000000000000081526004016125f790613fb3565b60405180910390fd5b80600860006101000a81548173ffffffffffffffffffffffffffffffffffffffff021916908373ffffffffffffffffffffffffffffffffffffffff16021790555050565b600860009054906101000a900473ffffffffffffffffffffffffffffffffffffffff1673ffffffffffffffffffffffffffffffffffffffff163373ffffffffffffffffffffffffffffffffffffffff16146126d4576040517f08c379a00000000000000000000000000000000000000000000000000000000081526004016126cb90613939565b60405180910390fd5b6126dc612bf5565b565b60006126e8612b51565b600073ffffffffffffffffffffffffffffffffffffffff168a73ffffffffffffffffffffffffffffffffffffffff1603612757576040517f08c379a000000000000000000000000000000000000000000000000000000000815260040161274e9061432e565b60405180910390fd5b6000851161279a576040517f08c379a00000000000000000000000000000000000000000000000000000000081526004016127919061439a565b60405180910390fd5b4284116127dc576040517f08c379a00000000000000000000000000000000000000000000000000000000081526004016127d390614406565b60405180910390fd5b60008989905011612822576040517f08c379a000000000000000000000000000000000000000000000000000000000815260040161281990614472565b60405180910390fd5b60c8898990501115612869576040517f08c379a0000000000000000000000000000000000000000000000000000000008152600401612860906144de565b60405180910390fd5b6301e13380426128799190613b80565b8411156128bb576040517f08c379a00000000000000000000000000000000000000000000000000000000081526004016128b29061454a565b60405180910390fd5b600060026000600554815260200190815260200160002090508a8160000160006101000a81548173ffffffffffffffffffffffffffffffffffffffff021916908373ffffffffffffffffffffffffffffffffffffffff160217905550898982600101918261292a929190614721565b50878782600201918261293e929190614721565b5085816003018190555084816004018190555060008160050181905550838382600601918261296e929190614721565b5060008160090160006101000a81548160ff0219169083600381111561299757612996613009565b5b02179055508a73ffffffffffffffffffffffffffffffffffffffff166005547fdc26653af5b99b2da33e2ad69ee6600d9aeccc82b034501db4338309615ca2388c8c8a8a6040516129eb949392919061482d565b60405180910390a360056000815480929190612a0690613b09565b91905055506001600554612a1a9190613a8f565b9150509998505050505050505050565b60006004600083815260200190815260200160002060009054906101000a900460ff169050919050565b60006003600084815260200190815260200160002060008373ffffffffffffffffffffffffffffffffffffffff1673ffffffffffffffffffffffffffffffffffffffff16815260200190815260200160002054905092915050565b600760009054906101000a900473ffffffffffffffffffffffffffffffffffffffff1681565b60065481565b600860009054906101000a900473ffffffffffffffffffffffffffffffffffffffff1681565b600260005403612b3d576040517f3ee5aeb500000000000000000000000000000000000000000000000000000000815260040160405180910390fd5b6002600081905550565b6001600081905550565b612b596121fc565b15612b90576040517fd93c066500000000000000000000000000000000000000000000000000000000815260040160405180910390fd5b565b612b9a612c57565b6000600160006101000a81548160ff0219169083151502179055507f5db9ee0a495bf2e6ff9c91a7834c1ba4fdd244a5e8aa4e537bd38aeae4b073aa612bde612c97565b604051612beb91906138d2565b60405180910390a1565b612bfd612b51565b60018060006101000a81548160ff0219169083151502179055507f62e78cea01bee320cd4e420270b5ea74000d11b0c9f74754ebdbfc544b05a258612c40612c97565b604051612c4d91906138d2565b60405180910390a1565b612c5f6121fc565b612c95576040517f8dfc202b00000000000000000000000000000000000000000000000000000000815260040160405180910390fd5b565b600033905090565b604051806101200160405280600073ffffffffffffffffffffffffffffffffffffffff16815260200160608152602001606081526020016000815260200160008152602001600081526020016060815260200160006003811115612d0657612d05613009565b5b8152602001600081525090565b604051806101400160405280600073ffffffffffffffffffffffffffffffffffffffff168152602001606081526020016060815260200160008152602001600081526020016000815260200160608152602001606081526020016060815260200160006003811115612d8857612d87613009565b5b81525090565b6000819050919050565b612da181612d8e565b82525050565b6000602082019050612dbc6000830184612d98565b92915050565b600080fd5b600080fd5b612dd581612d8e565b8114612de057600080fd5b50565b600081359050612df281612dcc565b92915050565b600080fd5b600080fd5b600080fd5b60008083601f840112612e1d57612e1c612df8565b5b8235905067ffffffffffffffff811115612e3a57612e39612dfd565b5b602083019150836020820283011115612e5657612e55612e02565b5b9250929050565b600080600060408486031215612e7657612e75612dc2565b5b6000612e8486828701612de3565b935050602084013567ffffffffffffffff811115612ea557612ea4612dc7565b5b612eb186828701612e07565b92509250509250925092565b60008060408385031215612ed457612ed3612dc2565b5b6000612ee285828601612de3565b9250506020612ef385828601612de3565b9150509250929050565b600081519050919050565b600082825260208201905092915050565b6000819050602082019050919050565b600073ffffffffffffffffffffffffffffffffffffffff82169050919050565b6000612f5482612f29565b9050919050565b612f6481612f49565b82525050565b600081519050919050565b600082825260208201905092915050565b60005b83811015612fa4578082015181840152602081019050612f89565b60008484015250505050565b6000601f19601f8301169050919050565b6000612fcc82612f6a565b612fd68185612f75565b9350612fe6818560208601612f86565b612fef81612fb0565b840191505092915050565b61300381612d8e565b82525050565b7f4e487b7100000000000000000000000000000000000000000000000000000000600052602160045260246000fd5b6004811061304957613048613009565b5b50565b600081905061305a82613038565b919050565b600061306a8261304c565b9050919050565b61307a8161305f565b82525050565b6000610120830160008301516130996000860182612f5b565b50602083015184820360208601526130b18282612fc1565b915050604083015184820360408601526130cb8282612fc1565b91505060608301516130e06060860182612ffa565b5060808301516130f36080860182612ffa565b5060a083015161310660a0860182612ffa565b5060c083015184820360c086015261311e8282612fc1565b91505060e083015161313360e0860182613071565b50610100830151613148610100860182612ffa565b508091505092915050565b600061315f8383613080565b905092915050565b6000602082019050919050565b600061317f82612efd565b6131898185612f08565b93508360208202850161319b85612f19565b8060005b858110156131d757848403895281516131b88582613153565b94506131c383613167565b925060208a0199505060018101905061319f565b50829750879550505050505092915050565b600060208201905081810360008301526132038184613174565b905092915050565b60006020828403121561322157613220612dc2565b5b600061322f84828501612de3565b91505092915050565b600081519050919050565b600082825260208201905092915050565b6000819050602082019050919050565b60006132708383612f5b565b60208301905092915050565b6000602082019050919050565b600061329482613238565b61329e8185613243565b93506132a983613254565b8060005b838110156132da5781516132c18882613264565b97506132cc8361327c565b9250506001810190506132ad565b5085935050505092915050565b600081519050919050565b600082825260208201905092915050565b6000819050602082019050919050565b600061331f8383612ffa565b60208301905092915050565b6000602082019050919050565b6000613343826132e7565b61334d81856132f2565b935061335883613303565b8060005b838110156133895781516133708882613313565b975061337b8361332b565b92505060018101905061335c565b5085935050505092915050565b600060408201905081810360008301526133b08185613289565b905081810360208301526133c48184613338565b90509392505050565b6133d681612f49565b82525050565b600082825260208201905092915050565b60006133f882612f6a565b61340281856133dc565b9350613412818560208601612f86565b61341b81612fb0565b840191505092915050565b61342f8161305f565b82525050565b60006101008201905061344b600083018b6133cd565b818103602083015261345d818a6133ed565b9050818103604083015261347181896133ed565b90506134806060830188612d98565b61348d6080830187612d98565b61349a60a0830186612d98565b81810360c08301526134ac81856133ed565b90506134bb60e0830184613426565b9998505050505050505050565b6134d181612f49565b81146134dc57600080fd5b50565b6000813590506134ee816134c8565b92915050565b60006020828403121561350a57613509612dc2565b5b6000613518848285016134df565b91505092915050565b6000806040838503121561353857613537612dc2565b5b600061354685828601612de3565b9250506020613557858286016134df565b9150509250929050565b600082825260208201905092915050565b600061357d82613238565b6135878185613561565b935061359283613254565b8060005b838110156135c35781516135aa8882613264565b97506135b58361327c565b925050600181019050613596565b5085935050505092915050565b600082825260208201905092915050565b60006135ec826132e7565b6135f681856135d0565b935061360183613303565b8060005b838110156136325781516136198882613313565b97506136248361332b565b925050600181019050613605565b5085935050505092915050565b6000610140830160008301516136586000860182612f5b565b50602083015184820360208601526136708282612fc1565b9150506040830151848203604086015261368a8282612fc1565b915050606083015161369f6060860182612ffa565b5060808301516136b26080860182612ffa565b5060a08301516136c560a0860182612ffa565b5060c083015184820360c08601526136dd8282612fc1565b91505060e083015184820360e08601526136f78282613572565b91505061010083015184820361010086015261371382826135e1565b91505061012083015161372a610120860182613071565b508091505092915050565b6000602082019050818103600083015261374f818461363f565b905092915050565b60008115159050919050565b61376c81613757565b82525050565b60006020820190506137876000830184613763565b92915050565b60008083601f8401126137a3576137a2612df8565b5b8235905067ffffffffffffffff8111156137c0576137bf612dfd565b5b6020830191508360018202830111156137dc576137db612e02565b5b9250929050565b600080600080600080600080600060c08a8c03121561380557613804612dc2565b5b60006138138c828d016134df565b99505060208a013567ffffffffffffffff81111561383457613833612dc7565b5b6138408c828d0161378d565b985098505060408a013567ffffffffffffffff81111561386357613862612dc7565b5b61386f8c828d0161378d565b965096505060606138828c828d01612de3565b94505060806138938c828d01612de3565b93505060a08a013567ffffffffffffffff8111156138b4576138b3612dc7565b5b6138c08c828d0161378d565b92509250509295985092959850929598565b60006020820190506138e760008301846133cd565b92915050565b7f4f6e6c792061646d696e00000000000000000000000000000000000000000000600082015250565b6000613923600a836133dc565b915061392e826138ed565b602082019050919050565b6000602082019050818103600083015261395281613916565b9050919050565b7f43616d706169676e20646f6573206e6f74206578697374000000000000000000600082015250565b600061398f6017836133dc565b915061399a82613959565b602082019050919050565b600060208201905081810360008301526139be81613982565b9050919050565b7f43616d706169676e206e6f74206661696c656400000000000000000000000000600082015250565b60006139fb6013836133dc565b9150613a06826139c5565b602082019050919050565b60006020820190508181036000830152613a2a816139ee565b9050919050565b7f4e487b7100000000000000000000000000000000000000000000000000000000600052603260045260246000fd5b7f4e487b7100000000000000000000000000000000000000000000000000000000600052601160045260246000fd5b6000613a9a82612d8e565b9150613aa583612d8e565b9250828203905081811115613abd57613abc613a60565b5b92915050565b600081905092915050565b50565b6000613ade600083613ac3565b9150613ae982613ace565b600082019050919050565b6000613aff82613ad1565b9150819050919050565b6000613b1482612d8e565b91507fffffffffffffffffffffffffffffffffffffffffffffffffffffffffffffffff8203613b4657613b45613a60565b5b600182019050919050565b7f4e487b7100000000000000000000000000000000000000000000000000000000600052604160045260246000fd5b6000613b8b82612d8e565b9150613b9683612d8e565b9250828201905080821115613bae57613bad613a60565b5b92915050565b7f4e487b7100000000000000000000000000000000000000000000000000000000600052602260045260246000fd5b60006002820490506001821680613bfb57607f821691505b602082108103613c0e57613c0d613bb4565b5b50919050565b7f46656520746f6f20686967680000000000000000000000000000000000000000600082015250565b6000613c4a600c836133dc565b9150613c5582613c14565b602082019050919050565b60006020820190508181036000830152613c7981613c3d565b9050919050565b7f4f6e6c79206f776e657200000000000000000000000000000000000000000000600082015250565b6000613cb6600a836133dc565b9150613cc182613c80565b602082019050919050565b60006020820190508181036000830152613ce581613ca9565b9050919050565b7f43616d706169676e206e6f74207375636365737366756c000000000000000000600082015250565b6000613d226017836133dc565b9150613d2d82613cec565b602082019050919050565b60006020820190508181036000830152613d5181613d15565b9050919050565b7f4e6f2066756e6473000000000000000000000000000000000000000000000000600082015250565b6000613d8e6008836133dc565b9150613d9982613d58565b602082019050919050565b60006020820190508181036000830152613dbd81613d81565b9050919050565b6000613dcf82612d8e565b9150613dda83612d8e565b9250828202613de881612d8e565b91508282048414831517613dff57613dfe613a60565b5b5092915050565b7f4e487b7100000000000000000000000000000000000000000000000000000000600052601260045260246000fd5b6000613e4082612d8e565b9150613e4b83612d8e565b925082613e5b57613e5a613e06565b5b828204905092915050565b7f466565207472616e73666572206661696c656400000000000000000000000000600082015250565b6000613e9c6013836133dc565b9150613ea782613e66565b602082019050919050565b60006020820190508181036000830152613ecb81613e8f565b9050919050565b7f5472616e73666572206661696c65640000000000000000000000000000000000600082015250565b6000613f08600f836133dc565b9150613f1382613ed2565b602082019050919050565b60006020820190508181036000830152613f3781613efb565b9050919050565b6000604082019050613f536000830185612d98565b613f606020830184612d98565b9392505050565b7f496e76616c696420616464726573730000000000000000000000000000000000600082015250565b6000613f9d600f836133dc565b9150613fa882613f67565b602082019050919050565b60006020820190508181036000830152613fcc81613f90565b9050919050565b7f446f6e6174696f6e206d757374206265203e2030000000000000000000000000600082015250565b60006140096014836133dc565b915061401482613fd3565b602082019050919050565b6000602082019050818103600083015261403881613ffc565b9050919050565b7f43616d706169676e206e6f742061637469766500000000000000000000000000600082015250565b60006140756013836133dc565b91506140808261403f565b602082019050919050565b600060208201905081810360008301526140a481614068565b9050919050565b7f446561646c696e65207061737365640000000000000000000000000000000000600082015250565b60006140e1600f836133dc565b91506140ec826140ab565b602082019050919050565b60006020820190508181036000830152614110816140d4565b9050919050565b7f4e6f20636f6e747269627574696f6e0000000000000000000000000000000000600082015250565b600061414d600f836133dc565b915061415882614117565b602082019050919050565b6000602082019050818103600083015261417c81614140565b9050919050565b7f526566756e64206661696c656400000000000000000000000000000000000000600082015250565b60006141b9600d836133dc565b91506141c482614183565b602082019050919050565b600060208201905081810360008301526141e8816141ac565b9050919050565b7f416c72656164792066696e616c697a6564000000000000000000000000000000600082015250565b60006142256011836133dc565b9150614230826141ef565b602082019050919050565b6000602082019050818103600083015261425481614218565b9050919050565b7f43616d706169676e207374696c6c206163746976650000000000000000000000600082015250565b60006142916015836133dc565b915061429c8261425b565b602082019050919050565b600060208201905081810360008301526142c081614284565b9050919050565b60006020820190506142dc6000830184613426565b92915050565b7f496e76616c6964206f776e657200000000000000000000000000000000000000600082015250565b6000614318600d836133dc565b9150614323826142e2565b602082019050919050565b600060208201905081810360008301526143478161430b565b9050919050565b7f546172676574206d757374206265203e20300000000000000000000000000000600082015250565b60006143846012836133dc565b915061438f8261434e565b602082019050919050565b600060208201905081810360008301526143b381614377565b9050919050565b7f446561646c696e65206d75737420626520696e20667574757265000000000000600082015250565b60006143f0601a836133dc565b91506143fb826143ba565b602082019050919050565b6000602082019050818103600083015261441f816143e3565b9050919050565b7f5469746c65207265717569726564000000000000000000000000000000000000600082015250565b600061445c600e836133dc565b915061446782614426565b602082019050919050565b6000602082019050818103600083015261448b8161444f565b9050919050565b7f5469746c6520746f6f206c6f6e67000000000000000000000000000000000000600082015250565b60006144c8600e836133dc565b91506144d382614492565b602082019050919050565b600060208201905081810360008301526144f7816144bb565b9050919050565b7f446561646c696e6520746f6f2066617200000000000000000000000000000000600082015250565b60006145346010836133dc565b915061453f826144fe565b602082019050919050565b6000602082019050818103600083015261456381614527565b9050919050565b600082905092915050565b60008190508160005260206000209050919050565b60006020601f8301049050919050565b600082821b905092915050565b6000600883026145d77fffffffffffffffffffffffffffffffffffffffffffffffffffffffffffffffff8261459a565b6145e1868361459a565b95508019841693508086168417925050509392505050565b6000819050919050565b600061461e61461961461484612d8e565b6145f9565b612d8e565b9050919050565b6000819050919050565b61463883614603565b61464c61464482614625565b8484546145a7565b825550505050565b600090565b614661614654565b61466c81848461462f565b505050565b5b8181101561469057614685600082614659565b600181019050614672565b5050565b601f8211156146d5576146a681614575565b6146af8461458a565b810160208510156146be578190505b6146d26146ca8561458a565b830182614671565b50505b505050565b600082821c905092915050565b60006146f8600019846008026146da565b1980831691505092915050565b600061471183836146e7565b9150826002028217905092915050565b61472b838361456a565b67ffffffffffffffff81111561474457614743613b51565b5b61474e8254613be3565b614759828285614694565b6000601f8311600181146147885760008415614776578287013590505b6147808582614705565b8655506147e8565b601f19841661479686614575565b60005b828110156147be57848901358255600182019150602085019450602081019050614799565b868310156147db57848901356147d7601f8916826146e7565b8355505b6001600288020188555050505b50505050505050565b82818337600083830152505050565b600061480c83856133dc565b93506148198385846147f1565b61482283612fb0565b840190509392505050565b60006060820190508181036000830152614848818688614800565b90506148576020830185612d98565b6148646040830184612d98565b9594505050505056fea2646970667358221220bad06d901ee83c6ee7ab4762f84ce31f8b01721d8d14eb2fe33fdc054224844b64736f6c63430008140033",
  "linkReferences": {},
  "deployedLinkReferences": {}
}